:020000040000FA
:06000000D7EF29F0120009
:0600080004EF04F01200F9
:060018000CEF04F01200E1
:06080000D7EF29F0120001
:060808008FEF05F0120065
:0608180022EF04F01200C3
:06082A0002006A54000008
:1008300060000000750000004C540000D50000006E
:040840001E00000096
:0C084400D8CFE4FFE0CFE4FFE46E06EC48
:1008500014F0F6CFE4FFF7CFE4FFF3CFE4FFF4CFDB
:10086000E4FFFACFE4FF00EE1DF0140EE80403E30A
:10087000EECFE4FFFBD7E652D1EC13F0080ED6EC36
:1008800013F0F0A028D07AEC13F021E281A40FD06D
:10089000AB51A719E8AE02D0A73504D0A651AA5D86
:1008A000A751AB5912E2A607000EA75B0ED0A751C5
:1008B000A919E8AE02D0A93504D0A851A65DA95166
:1008C000A75903E2A62B000EA723010EA46FEFEC9D
:1008D00013F0F09002D1F0A206D07AEC13F0EFEC16
:1008E00013F0F092FAD09EA2F8D081A00BD00001B4
:1008F000000ED880BB55000EBC550DE2BB07000EA4
:10090000BC5B09D00001050EBB5D000EBC5903E2C3
:10091000BB2B000EBC2381A20AD0000ED880BD558F
:10092000000EBE550CE2BD07000EBE5B08D0050EE2
:10093000BD5D000EBE5903E2BD2B000EBE2381A497
:100940000AD0000ED880BF55000EC0550CE2BF077C
:10095000000EC05B08D0050EBF5D000EC05903E25B
:10096000BF2B000EC023BB51BC1105E1C16BC26B94
:10097000C36BC46B13D0050EBB5D000EBC590EE3F8
:10098000C151C211C311C41106E1010EC16FC26B86
:10099000C36BC46BA52B050EBB6FBC6BBF51C011E5
:1009A00005E1C96BCA6BCB6BCC6B2FD0050EBF5D5D
:1009B000000EC0592AE3C951CA11CB11CC1102E172
:1009C0000FEC14F0C92B000ECA23CB23CC2322EC4E
:1009D00013F006E0B3EC13F014E24FEC13F011E166
:1009E0000001A751A919E8AE02D0A93504D0A85139
:1009F000A65DA951A75905E2A62B000EA723010E5B
:100A0000A46F050E0001BF6FC06BBD51BE1105E1A3
:100A1000C56BC66BC76BC86B2FD0050EBD5D000ED6
:100A2000BE592AE3C551C611C711C81102E10FEC26
:100A300014F0C52B000EC623C723C82322EC13F0E5
:100A400006E0B3EC13F014E24FEC13F011E10001F7
:100A5000AB51A719E8AE02D0A73504D0A651AA5DC4
:100A6000A751AB5905E2A607000EA75B010EA46FC4
:100A7000050E0001BD6FBE6B020EA027000EA12364
:100A8000A223A3230A0EA55D03E3A5510C080CE2E3
:100A9000B6050AE036EC14F09FEC13F0FDEC21F003
:100AA000010A02E18284FED700019E2B000E9F23E3
:100AB000640ED8809E55000E9F5502E29E6B9F6B80
:100AC0000001ED5100019E5D0001EE5100019F59B2
:100AD00002E3828401D082949E92080EE15C02E2DD
:100AE000E16AE552EAEC13F0E55200EE30F0140E44
:100AF000E80403E3E5CFEDFFFBD7E5CFFAFFE5CF51
:100B0000F4FFE5CFF3FFE5CFF7FFE5CFF6FF3EECCF
:100B100014F0E550E5CFE0FFE5CFD8FF100006EC7C
:100B200014F0E652D1EC13F0040ED6EC13F0F2A25E
:100B30001BD061EC14F00001CD51EE5C396ECE514A
:100B4000EE583A6ECF51EE583B6ED051EE583C6E97
:100B5000D880C80E3954000E3A54000E3B54000E93
:100B60003C5401E2A52BF292DFCFCDF0010EDBCF9A
:100B7000CEF0020EDBCFCFF0030EDBCFD0F0040EB1
:100B8000E15C02E2E16AE552EAEC13F0E5523EEC88
:100B900014F0110004009494929492969298929A70
:100BA0009398939A9396928092829382938493805F
:100BB00094829480938E070EB46E82843DEC26F06E
:100BC0000D0EE66E040EE66EEF0EE66E84EC28F077
:100BD000E552E552E5520400E66811EC28F0E552D2
:100BE000E66A020EE66EEEEC28F0E552E5520400ED
:100BF0001200D08E9D9C9D9A9D989D969D949D825D
:100C00009D90A09EA09CA09AA098A096A094A0922F
:100C1000A0809E6AA16A9F9C9F9A9F989F969F948E
:100C20009F929F90A29EA29CA29AA298A296A29402
:100C3000A292A290F18EF18CF18AF188F184F19068
:100C4000F09EF09CF098F096F298F092F090F28E70
:100C5000F28CF29AF296F294F290F292939CAE0E8B
:100C6000E66E6DEC29F0E552FA0ECB6ECC6A1200FE
:100C7000D9CFE6FFE1CFD9FF0D0EE12600019E6B33
:100C80009F6B0001ED6BEE6B120EE66E3AEC29F0F5
:100C9000E5520001A66FA76B0400A6C000F0A7C034
:100CA00001F00A0E0102F3CF01F00A0E0002F3CFA9
:100CB00000F0F450012600C0E6FF01C0E6FFEEECB4
:100CC00028F0E552E5520C0EE66E3AEC29F0E552BA
:100CD0000001A66F0D0EE66E3AEC29F0E552000118
:100CE000A76F780E0001A86FA96B140E0001AA6F00
:100CF000AB6B050E256E266AA6C02AF0A7C02BF0A6
:100D000063EC21F023C0B0F024C0B1F00C0EDB6A1C
:100D1000040EF36E0C0EDBCFF4FFF350F45C19E21B
:100D20000C0EDBCFE6FF3AEC29F0E552E66ED9CFA8
:100D300000F0DACF01F00C0EDB500F010024E96E59
:100D4000000E0120EA6EE552E750EF6E0C0EDB2A32
:100D5000DFD70C0EDB6A040EF36E0C0EDBCFF4FF54
:100D6000F350F45C1BE20C0EDB50040FE66E3AEC21
:100D700029F0E552E66ED950040F006EDACF01F08B
:100D80000C0EDB500F010024E96E000E0120EA6E0C
:100D9000E552E750EF6E0C0EDB2ADDD70C0EDB6A56
:100DA000040EF36E0C0EDBCFF4FFF350F45C1BE289
:100DB0000C0EDB50080FE66E3AEC29F0E552E66EB9
:100DC000D950080F006EDACF01F00C0EDB500F0186
:100DD0000024E96E000E0120EA6EE552E750EF6E46
:100DE0000C0EDB2ADDD7D950080FE96EDACFEAFF07
:100DF000EECFE6FFEECFE6FFEECFE6FFEFCFE6FF6A
:100E0000D950040FE96EDACFEAFFEECFE6FFEECF5E
:100E1000E6FFEECFE6FFEFCFE6FFD9CFE9FFDACF6F
:100E2000EAFFEECFE6FFEECFE6FFEECFE6FFEFCF35
:100E3000E6FFC8EC24F0006E0C0EE15E00500C0ED4
:100E4000DB6A040EF36E0C0EDBCFF4FFF350F45CA0
:100E500015E20C0EDB50140FE66E3AEC29F0E55269
:100E6000E66E0C0EDB50EA6A000FE96E010EEA2214
:100E7000E552E750EF6E0C0EDB2AE3D70C0EDB6A6F
:100E8000040EF36E0C0EDBCFF4FFF350F45C15E2AE
:100E90000C0EDB50180FE66E3AEC29F0E552E66EC8
:100EA0000C0EDB50EA6A040FE96E010EEA22E552ED
:100EB000E750EF6E0C0EDB2AE3D7010EE66E28D862
:100EC000E55223C000F024C001F025C002F026C086
:100ED00003F000C0E6FF01C0E6FF02C0E6FF03C06A
:100EE000E6FFBFD8E552E552E552E55223C0ACF02B
:100EF00024C0ADF025C0AEF026C0AFF00D0EE15C11
:100F000002E2E16AE552E16EE552E7CFD9FF120055
:100F1000D9CFE6FFE1CFD9FF060EE126DE6ADE6A11
:100F2000DE6ADD6ADD52DD52040EDB6A050EDB6A25
:100F3000040EDBCF00F0050EDBCF01F0D89001509E
:100F400004E6080E005C000E015843E20400FE0EA9
:100F5000DB500CE00D0EE66E040EE66EEF0EE66E54
:100F600084EC28F0E552E552E5520BD00D0EE66E0A
:100F70000C0EE66EEF0EE66E84EC28F0E552E552BC
:100F8000E552640EE66E01EC2AF0E55223EC2AF0FD
:100F90001EEC2AF0000901E0FBD70CEC2AF0F3CF9D
:100FA00000F0F4CF01F0026A036A01AE02D00268D9
:100FB00003680050DE260150DE220250DE2203507C
:100FC000DD22DD52DD52040EDB2A050E01E3DB2AB1
:100FD000AFD7D9CFE9FFDACFEAFFEECF08F0EECFF7
:100FE00009F0EECF0AF0EFCF0BF008C023F009C0F4
:100FF00024F00AC025F00BC026F0CBEC1FF024C073
:1010000004F025C005F026C006F027C007F0296AC5
:101010002A6A2B6A410E2C6E04C024F005C025F00C
:1010200006C026F007C027F07DEC20F024C000F0B9
:1010300025C001F026C002F027C003F000C023F055
:1010400001C024F002C025F003C026F000D0060E37
:10105000E15C02E2E16AE552E16EE552E7CFD9FFD9
:101060001200D1EC13F092EC13F000C029F001C093
:101070002AF002C02BF003C02CF0D1C024F0D2C063
:1010800025F0D3C026F0D4C027F0F6EC21F0010AF9
:101090000FE00001010EA46FFB0EDBCFD1F0FC0EC0
:1010A000DBCFD2F0FD0EDBCFD3F0FE0EDBCFD4F0E2
:1010B00000C124F001C125F002C126F003C127F0D0
:1010C000FB0EDBCF29F0FC0EDBCF2AF0FD0EDBCFD1
:1010D0002BF0FE0EDBCF2CF0D0EC20F077EC13F0F1
:1010E00004C124F005C125F006C126F007C127F090
:1010F000E7EC1FF0C2EC13F024C023F025C024F06D
:1011000026C025F027C026F0E552E7CFD9FF120010
:10111000D1EC13F0040EE126010EE66EF9DEE55285
:1011200023C008F024C009F025C00AF026C00BF047
:1011300023C0E6FF24C0E6FF25C0E6FF26C0E6FF89
:1011400090DFE552E552E552E55223C004F024C099
:1011500005F025C006F026C007F023C029F024C002
:101160002AF025C02BF026C02CF09FEC13F0E7EC02
:101170001FF0C2EC13F0296A2A6A2B6A400E2C6E0B
:101180007DEC20F024C0ACF025C0ADF026C0AEF060
:1011900027C0AFF036EC14F0FDEC21F0010A02E1BB
:1011A0008284FED70001A4055FE1A5515DE1FE0E3A
:1011B000DB500DE1050E256E266AA6C02AF0A7C0F9
:1011C0002BF063EC21F023C0B0F024C0B1F0B0C02C
:1011D000E6FFB1C0E6FFFC0E006E4A0EE3EC13F032
:1011E000070EE15E03509FEC13F090EC21F025C058
:1011F000DEFF26C0DDFFDECF02F0DDCF03F0640EA0
:101200000302F3CF03F00202F3CF02F0F4500326FF
:10121000296A2A6AC80E2B6E420E2C6E9FEC13F0C0
:10122000D0EC20F090EC21F00250255C006E0350D1
:101230002658016E020E00C0DBFF030E01C0DBFF6B
:10124000020EDBCFE6FF030EDBCFE6FFDECFE6FFCD
:10125000DDCFE6FFEA0E006E4A0EE3EC13F0090E56
:10126000E15E03500001A46BEAEC22F0040EE15CA5
:1012700002E2E16AE552EAEF13F0D1EC13F0020E5C
:10128000E126DE6ADD6ACBEC13F012E2DFCFE6FF87
:10129000D950FB0F006EFF0EDA20016EDE500024E5
:1012A000E96EDD5001204EEC14F0EDE3DB2AEBD7C4
:1012B000DE6ADD6ACBEC13F00CE272EC14F0040E83
:1012C0000024E66ED950F70FA8EC13F0F3E3DB2A05
:1012D000F1D7DE6ADD6ACBEC13F00CE272EC14F0AD
:1012E000080E0024E66ED950F30FA8EC13F0F3E3D8
:1012F000DB2AF1D7020EE15C02E2E16AE552EAEF95
:1013000013F0D9CFE6FFE1CFD9FF120EE126A6C038
:10131000DEFFA7C0DDFF0001ED6BEE6B82840001F4
:10132000A55102E1B1EF0FF0320EE66E88EC29F024
:10133000E55204000001A551070A02E11EEF0FF07B
:10134000010A02E17FEF0EF0030A02E1C2EF0DF0A5
:10135000010A01E16CD3070A01E10DD2010A01E1A2
:1013600007D1030A02E04DEF0FF0296A2A6A7A0ECC
:101370002B6E440E2C6ED5C024F0D6C025F0D7C0FD
:1013800026F0D8C027F0D0EC20F090EC21F025C05A
:10139000A6F026C0A7F00001AA6BAB6B0001A86BFA
:1013A0007D0EA96F0E0EA0C0DBFF0F0EA1C0DBFFEC
:1013B000100EA2C0DBFF110EA3C0DBFF0001A46B67
:1013C000DD0E006E4A0E016E026A00C0E6FF01C02B
:1013D000E6FF02C0E6FFE668E6683CEC27F0036E35
:1013E000050EE15E03500001A50501E0BFD000013C
:1013F000800EA71503E00001A66BA76BA6C002F044
:10140000A7C003F0E80E2A6E030E2B6E02C025F073
:1014100003C026F03DEC21F025C002F026C003F009
:10142000E80E0302F3CF03F0030E0202F35003268B
:10143000E80E0202F3CF02F0F4500326000102503E
:10144000A65D006E0350A759016E00C0E6FF01C003
:10145000E6FFA6C004F0A7C005F0E80E2A6E030E52
:101460002B6E04C025F005C026F03DEC21F025C010
:1014700004F026C005F004C0E6FF05C0E6FFCF0E6D
:10148000066E4A0E076E086A06C0E6FF07C0E6FF52
:1014900008C0E6FFE668E6683CEC27F0096E090E36
:1014A000E15E0950A6C025F0A7C026F0B8EC1FF0F9
:1014B00024C000F025C001F026C002F027C003F0D0
:1014C000296A2A6A7A0E2B6E440E2C6E00C024F014
:1014D00001C025F002C026F003C027F07DEC20F00B
:1014E000020E24C0DBFF030E25C0DBFF040E26C066
:1014F000DBFF050E27C0DBFF320EE66E88EC29F01D
:10150000E55204000001A4510EE00001A46B0E0E90
:10151000A0C0DBFF0F0EA1C0DBFF100EA2C0DBFFDF
:10152000110EA3C0DBFFD9500E0FE96EDACFEAFF30
:10153000EE500001A05D006EEE500001A159016E59
:10154000EE500001A259026EEE500001A359036E45
:10155000D880880E0054130E0154000E0254000E61
:10156000035403E20001A56B01D03DD7AFEF0FF0AC
:10157000296A2A6A7A0E2B6E440E2C6ED9C024F08A
:10158000DAC025F0DBC026F0DCC027F0D0EC20F07C
:1015900090EC21F025C0A6F026C0A7F00001AA6BB0
:1015A000AB6B0001A86B7D0EA96F0E0EA0C0DBFF18
:1015B0000F0EA1C0DBFF100EA2C0DBFF110EA3C0F7
:1015C000DBFF0001A46BC20E006E4A0E016E026AC0
:1015D00000C0E6FF01C0E6FF02C0E6FFE668E6687D
:1015E0003CEC27F0036E050EE15E0350020E000195
:1015F000A55D01E0BFD00001800EA71503E000014A
:10160000A66BA76BA6C002F0A7C003F0E80E2A6E77
:10161000030E2B6E02C025F003C026F03DEC21F036
:1016200025C002F026C003F0E80E0302F3CF03F05A
:10163000030E0202F3500326E80E0202F3CF02F07B
:10164000F450032600010250A65D006E0350A75916
:10165000016E00C0E6FF01C0E6FFA6C004F0A7C00F
:1016600005F0E80E2A6E030E2B6E04C025F005C0AF
:1016700026F03DEC21F025C004F026C005F004C0A2
:10168000E6FF05C0E6FFB40E066E4A0E076E086A56
:1016900006C0E6FF07C0E6FF08C0E6FFE668E668AA
:1016A0003CEC27F0096E090EE15E0950A6C025F05A
:1016B000A7C026F0B8EC1FF024C000F025C001F050
:1016C00026C002F027C003F0296A2A6A7A0E2B6E20
:1016D000440E2C6E00C024F001C025F002C026F09C
:1016E00003C027F07DEC20F0060E24C0DBFF070EC0
:1016F00025C0DBFF080E26C0DBFF090E27C0DBFF7D
:10170000320EE66E88EC29F0E55204000001A45187
:101710000EE00001A46B0E0EA0C0DBFF0F0EA1C0F7
:10172000DBFF100EA2C0DBFF110EA3C0DBFFD95000
:101730000E0FE96EDACFEAFFEE500001A05D006EF9
:10174000EE500001A159016EEE500001A259026E47
:10175000EE500001A359036ED880880E0054130E7A
:101760000154000E0254000E035403E20001A56B65
:1017700001D03CD7F4D3296A2A6A7A0E2B6E440E24
:101780002C6EDDC024F0DEC025F0DFC026F0E0C006
:1017900027F0D0EC20F090EC21F025C0A6F026C078
:1017A000A7F00001AA6BAB6B0001A86B7D0EA96FBF
:1017B0000E0EA0C0DBFF0F0EA1C0DBFF100EA2C0FB
:1017C000DBFF110EA3C0DBFF0001A46BA70E006EB0
:1017D0004A0E016E026A00C0E6FF01C0E6FF02C0C9
:1017E000E6FFE668E6683CEC27F0036E050EE15E76
:1017F0000350030E0001A55D01E0BFD00001800E83
:10180000A71503E00001A66BA76BA6C002F0A7C056
:1018100003F0E80E2A6E030E2B6E02C025F003C003
:1018200026F03DEC21F025C002F026C003F0E80EC2
:101830000302F3CF03F0030E0202F3500326E80E77
:101840000202F3CF02F0F450032600010250A65D1D
:10185000006E0350A759016E00C0E6FF01C0E6FF0D
:10186000A6C004F0A7C005F0E80E2A6E030E2B6E8A
:1018700004C025F005C026F03DEC21F025C004F0A1
:1018800026C005F004C0E6FF05C0E6FF990E066E0F
:101890004A0E076E086A06C0E6FF07C0E6FF08C0EA
:1018A000E6FFE668E6683CEC27F0096E090EE15EAB
:1018B0000950A6C025F0A7C026F0B8EC1FF024C040
:1018C00000F025C001F026C002F027C003F0296A0D
:1018D0002A6A7A0E2B6E440E2C6E00C024F001C0D2
:1018E00025F002C026F003C027F07DEC20F00A0EA0
:1018F00024C0DBFF0B0E25C0DBFF0C0E26C0DBFF78
:101900000D0E27C0DBFF320EE66E88EC29F0E552A3
:1019100004000001A4510EE00001A46B0E0EA0C053
:10192000DBFF0F0EA1C0DBFF100EA2C0DBFF110E0C
:10193000A3C0DBFFD9500E0FE96EDACFEAFFEE50FD
:101940000001A05D006EEE500001A159016EEE5045
:101950000001A259026EEE500001A359036ED88017
:10196000880E0054130E0154000E0254000E03544E
:1019700003E20001A56B01D03CD7D9500A0FE96EF4
:10198000DACFEAFFEECFE6FFEECFE6FFEECFE6FFDF
:10199000EFCFE6FFD950060FE96EDACFEAFFEECFC0
:1019A000E6FFEECFE6FFEECFE6FFEFCFE6FFD95042
:1019B000020FE96EDACFEAFFEECFE6FFEECFE6FFE9
:1019C000EECFE6FFEFCFE6FFC8EC24F0006E0C0E82
:1019D000E15E0050D9500A0FE96EDACFEAFFEECF90
:1019E000E6FFEECFE6FFEECFE6FFEFCFE6FFD95002
:1019F000060FE96EDACFEAFFEECFE6FFEECFE6FFA5
:101A0000EECFE6FFEFCFE6FFD950020FE96EDACF57
:101A1000EAFFEECFE6FFEECFE6FFEECFE6FFEFCF39
:101A2000E6FF2BDC006E0C0EE15E005098D2140E27
:101A30000001AA6FAB6B780E0001A86FA96B0E0EA8
:101A4000A0C0DBFF0F0EA1C0DBFF100EA2C0DBFFAA
:101A5000110EA3C0DBFF0001A46B0C0EE66E3AEC86
:101A600029F0E5520001A66F0D0EE66E3AEC29F062
:101A7000E5520001A76F8C0E006E4A0E016E026ADD
:101A800000C0E6FF01C0E6FF02C0E6FFE668E668C8
:101A90003CEC27F0036E050EE15E0350040E0001DE
:101AA000A55D5FE1A6C000F0A7C001F0050E010230
:101AB000F3CF01F0050E0002F3CF00F0F450012641
:101AC00000C0E6FF01C0E6FF7C0E026E4A0E036E08
:101AD000046A02C0E6FF03C0E6FF04C0E6FFE66852
:101AE000E6683CEC27F0056E070EE15E0550320E0D
:101AF000E66E88EC29F0E55204000001A4510EE0E6
:101B00000001A46B0E0EA0C0DBFF0F0EA1C0DBFF17
:101B1000100EA2C0DBFF110EA3C0DBFFD9500E0FC9
:101B2000E96EDACFEAFFEE500001A05D006EEE50E4
:101B30000001A159016EEE500001A259026EEE5053
:101B40000001A359036ED880880E0054130E01546F
:101B5000000E0254000E035403E20001A56B01D0F5
:101B60009DD70C0EE66EA6C0E6FF1DEC29F0E552EF
:101B7000E5520D0EE66EA7C0E6FF1DEC29F0E5521A
:101B8000E552EDD10001AA6BAB6B640E0001A86FAA
:101B9000A96B120EE66E3AEC29F0E5520001A66F31
:101BA000A76B0E0EA0C0DBFF0F0EA1C0DBFF100E57
:101BB000A2C0DBFF110EA3C0DBFF0001A46B6F0E00
:101BC000006E4A0E016E026A00C0E6FF01C0E6FF29
:101BD00002C0E6FFE668E6683CEC27F0036E050EFF
:101BE000E15E0350050E0001A55D68E1A6C0E6FFB9
:101BF000A7C0E6FF5F0E006E4A0E016E026A00C0CB
:101C0000E6FF01C0E6FF02C0E6FFE668E6683CECDE
:101C100027F0036E070EE15E03500400A6C000F03B
:101C2000A7C001F00A0E0102F3CF01F00A0E000274
:101C3000F3CF00F0F450012600C0E6FF01C0E6FF3C
:101C4000EEEC28F0E552E552320EE66E88EC29F013
:101C5000E55204000001A4510EE00001A46B0E0E39
:101C6000A0C0DBFF0F0EA1C0DBFF100EA2C0DBFF88
:101C7000110EA3C0DBFFD9500E0FE96EDACFEAFFD9
:101C8000EE500001A05D006EEE500001A159016E02
:101C9000EE500001A259026EEE500001A359036EEE
:101CA000D880880E0054130E0154000E0254000E0A
:101CB000035403E20001A56B01D094D70400A6C031
:101CC00000F0A7C001F00A0E0102F3CF01F00A0EE6
:101CD0000002F3CF00F0F450012600C0E6FF01C07F
:101CE000E6FFEEEC28F0E552E552120EE66E00013A
:101CF000A651E66E1DEC29F0E552E55230D1000107
:101D0000AA6BAB6B010E0001A86FA96B0001A66B5B
:101D1000A76B0E0EA0C0DBFF0F0EA1C0DBFF100EE5
:101D2000A2C0DBFF110EA3C0DBFF0001A46B4D0EB0
:101D3000006E4A0E016E026A00C0E6FF01C0E6FFB7
:101D400002C0E6FFE668E6683CEC27F0036E050E8D
:101D5000E15E0350060E0001A55D6FE10001010E7A
:101D6000A61901E1A75118E1A6C0E6FFA7C0E6FF4A
:101D7000410E006E4A0E016E026A00C0E6FF01C00D
:101D8000E6FF02C0E6FFE668E6683CEC27F0036E7B
:101D9000070EE15E035017D0A6C0E6FFA7C0E6FF1E
:101DA000350E006E4A0E016E026A00C0E6FF01C0E9
:101DB000E6FF02C0E6FFE668E6683CEC27F0036E4B
:101DC000070EE15E0350320EE66E88EC29F0E55214
:101DD00004000001A4510EE00001A46B0E0EA0C08F
:101DE000DBFF0F0EA1C0DBFF100EA2C0DBFF110E48
:101DF000A3C0DBFFD9500E0FE96EDACFEAFFEE5039
:101E00000001A05D006EEE500001A159016EEE5080
:101E10000001A259026EEE500001A359036ED88052
:101E2000880E0054130E0154000E0254000E035489
:101E300003E20001A56B01D08DD791D00001010E06
:101E4000A61901E1A75125E15DEC1DF0010EE66E3A
:101E500088EC07F0E55223C000F024C001F025C053
:101E600002F026C003F000C0E6FF01C0E6FF02C09A
:101E7000E6FF03C0E6FF31EC08F0E552E552E5521B
:101E8000E55223C0ACF024C0ADF025C0AEF026C0B2
:101E9000AFF00001080EA56F62D02F0E006E4A0E43
:101EA000016E026A00C0E6FF01C0E6FF02C0E6FF65
:101EB000E668E6683CEC27F0036E050EE15E035031
:101EC0000001A56B0E0EA0C0DBFF0F0EA1C0DBFF53
:101ED000100EA2C0DBFF110EA3C0DBFF0001A46B3C
:101EE0000001A5513AE1320EE66E88EC29F0E55288
:101EF00004000001A4510EE00001A46B0E0EA0C06E
:101F0000DBFF0F0EA1C0DBFF100EA2C0DBFF110E26
:101F1000A3C0DBFFD9500E0FE96EDACFEAFFEE5017
:101F20000001A05D006EEE500001A159016EEE505F
:101F30000001A259026EEE500001A359036ED88031
:101F4000880E0054130E0154000E0254000E035468
:101F500003E20001A56B01D0C3D70001A56B8FEF91
:101F600009F00001A56B780E0001A86FA96B140E93
:101F70000001AA6FAB6BDECFA6F0DDCFA7F0120E8B
:101F8000E15C02E2E16AE552E16EE552E7CFD9FF9A
:101F9000120012001200D1EC13F0080EE126FB0E25
:101FA000DBCF24F0FC0EDBCF25F0FD0EDBCF26F0DF
:101FB000FE0EDBCF27F0BFEC21F023C0DEFF24C0F4
:101FC000DEFF25C0DEFF26C0DDFFDD52DD5261EC05
:101FD00014F0EECF08F0EECF09F0EECF0AF0EFCF1D
:101FE0000BF0100E286E270E296E2A6A2B6A08C085
:101FF00023F009C024F00AC025F00BC026F04CECF9
:1020000028F01FC008F020C009F021C00AF022C04B
:102010000BF0FB0EDBCF04F0FC0EDBCF05F0FD0E6A
:10202000DBCF06F0FE0EDBCF07F0296A400E2A6EEA
:102030001C0E2B6E460E2C6E18EC14F0D0EC20F01B
:10204000BFEC21F000010850235C006E09502458B9
:10205000016E0A502558026E0B502658036E040E6E
:1020600000C0DBFF050E01C0DBFF060E02C0DBFF78
:10207000070E03C0DBFFD950040FE96EBCDBD9CFDC
:10208000E9FFB9DB240E006E4A0E66EC14F0FE0E7A
:10209000E66EE6683CEC27F0036E0D0EE15E035041
:1020A000080EE15C02E2E16AE552EAEF13F079DB47
:1020B0000B0EE126010EF36E0A0EF3CFDBFF200EAE
:1020C000F36E0A0EDBCFF4FFF350F45C01E3A5D00E
:1020D0000A0EEA6ADB34FE0BEA36E96E600EE92688
:1020E000000EEA22EECFDEFFEDCFDDFF1BDB000EA0
:1020F000DFCF25F0010EF2DBFDEC21F0010A01E05B
:1021000089D0DFDB020EEECFDBFF030EEDCFDBFF6E
:102110000A0EDB04E96EEA6AD890E936EA36600E08
:10212000E926000EEA22040EEECFDBFF050EEDCF0E
:10213000DBFF040EDBCF02F0050EDBCF03F0020E57
:10214000DB50025C006E030EDB500358016E080E7C
:1021500000C0DBFF090E01C0DBFFE4DA020EDBCFBB
:1021600025F0030EBBDBE6EC1FF090EC21F0060E31
:1021700025C0DBFF070E26C0DBFF0A0EDBCF0CF00D
:102180000CC026F0A5EC1FF024C008F025C009F013
:1021900026C00AF027C00BF05DDB8ADB060EDBCF22
:1021A00025F0070E5FDB24C015F025C016F026C011
:1021B00017F027C018F04EDB24C011F025C012F034
:1021C00026C013F027C014F0080EDBCF25F0090E4F
:1021D00049DB24C019F025C01AF026C01BF027C027
:1021E0001CF053DB11C024F012C025F013C026F000
:1021F00014C027F07DEC20F024C00DF025C00EF0B7
:1022000026C00FF027C010F040DB12DBE6EC1FF019
:10221000B9DA09D00A0EDB2A52D7006A016A9B0E8E
:10222000026E430E036E00C023F001C024F002C012
:1022300025F003C026F00B0EE15C02E2E16AE552F4
:10224000EAEF13F0D9CFE6FFE1CFD9FF060EE12682
:10225000D0B644D0CAEC05F0E668030EE66EEEECAC
:1022600028F0E552E5528284150E006E4A0E016E8A
:10227000026A00C0E6FF01C0E6FF02C0E6FFE668B2
:10228000E6683CEC27F0036E050EE15E0350DE6A63
:10229000DD6A0400DFCF00F0DF2A010EDBCF01F0A2
:1022A00001E3DB2A00C0E6FF01C0E6FFEEEC28F008
:1022B000E552E552DECF00F0DDCF01F0013404E25B
:1022C0000050E808030E015402E2DE6ADD6A010EE6
:1022D000E66E88EC29F0E5520400DBD70001010E20
:1022E000B66FCAEC05F0F9EC05F0F80E006E490E79
:1022F000016E026A00C0E6FF01C0E6FF02C0E6FF11
:10230000E668E6683CEC27F0036E050EE15E0350DC
:10231000DE6ADD6ADECF00F0DDCF01F0D89001503B
:1023200004E60A0E005C000E01580AE2E66A88EC38
:1023300029F0E5520400DF2A010E01E3DB2AEAD787
:1023400038EC06F0296A800E2A6E090E2B6E440EB8
:102350002C6EACC024F0ADC025F0AEC026F0AFC0EE
:1023600027F0FDEC21F0010A10E0296A2A6A2B6AA5
:102370002C6AACC024F0ADC025F0AEC026F0AFC0D2
:1023800027F006EC22F0010A0EE10001070EA56F0E
:10239000010E0001A66FA76B81EC09F0640E00012D
:1023A000B06FB16BCFD70001B66B330EE66EE66A45
:1023B0003C0EE66E8AEC27F0E552E552E552EF0E50
:1023C000006E490E016E026A00C0E6FF01C0E6FF22
:1023D00002C0E6FFFE0EE66EE6683CEC27F0036EF8
:1023E000050EE15E0350E66A88EC08F0E552296AC2
:1023F000800E2A6E090E2B6E440E2C6EACC024F09B
:10240000ADC025F0AEC026F0AFC027F0FDEC21F046
:10241000010A02E18284FED7C80EE66E88EC29F03C
:10242000E55204000001A55102E081EC09F082B2FE
:10243000B0DD82B0AFDDE66A88EC07F0E55223C07C
:1024400000F024C001F025C002F026C003F000C057
:10245000E6FF01C0E6FF02C0E6FF03C0E6FF27DE9D
:10246000E552E552E552E552020E23C0DBFF030EB2
:1024700024C0DBFF040E25C0DBFF050E26C0DBFFFA
:10248000A0C023F0A1C024F0A2C025F0A3C026F074
:10249000CBEC1FF024C004F025C005F026C006F0E8
:1024A00027C007F0296A2A6A7A0E2B6E440E2C6E1A
:1024B00004C024F005C025F006C026F007C027F0B0
:1024C0007DEC20F024C000F025C001F026C002F011
:1024D00027C003F000C0E6FF01C0E6FF02C0E6FF30
:1024E00003C0E6FF58DDE552E552E552E552B0C0C3
:1024F00025F0B1C026F0B8EC1FF024C000F025C0D4
:1025000001F026C002F027C003F000C0E6FF01C0C2
:10251000E6FF02C0E6FF03C0E6FF3DDDE552E552FF
:10252000E552E552ACC0E6FFADC0E6FFAEC0E6FF47
:10253000AFC0E6FF30DDE552E552E552E552D95035
:10254000020FE96EDACFEAFFEECFE6FFEECFE6FF4D
:10255000EECFE6FFEFCFE6FF1EDDE552E552E55296
:10256000E552D5C0E6FFD6C0E6FFD7C0E6FFD8C02B
:10257000E6FF11DDE552E552E552E552D9C0E6FF2E
:10258000DAC0E6FFDBC0E6FFDCC0E6FF04DDE552B3
:10259000E552E552E552DDC0E6FFDEC0E6FFDFC0F2
:1025A000E6FFE0C0E6FFF7DCE552E552E552E55212
:1025B000E1C0E6FFE2C0E6FFE3C0E6FFE4C0E6FFFD
:1025C000EADCE552E552E552E552E5C0E6FFE6C039
:1025D000E6FFE7C0E6FFE8C0E6FFDDDCE552E552D6
:1025E000E552E552E9C0E6FFEAC0E6FFEBC0E6FFD0
:1025F000ECC0E6FFD0DCE552E552E552E552EDC015
:10260000E6FFEEC0E6FFEA0E006E490E016E026ABA
:1026100000C0E6FF01C0E6FF02C0E6FFFE0EE66E68
:10262000E6683CEC27F0036E070EE15E0350DBD654
:10263000060EE15C02E2E16AE552E16EE552E7CFA7
:10264000D9FF1200B70EE96E000EEA6EEE50A05DE3
:10265000316EEE50A159326EEE50A259336EEE50EB
:10266000A359346E040E31C0DBFF050E32C0DBFF10
:10267000060E33C0DBFF070E34C0DBFF040EDBCFDA
:1026800031F0050EDBCF32F0060EDBCF33F0070E54
:10269000DBCF34F031503210331034101200040EFE
:1026A000DBCF35F0050EDBCF36F0060EDBCF37F093
:1026B000070EDBCF38F0500E286E296A2A6A2B6A83
:1026C00035C023F036C024F037C025F038C026F0DE
:1026D00049EC29F01FC035F020C036F021C037F09A
:1026E00022C038F01F502010211022101200E0D814
:1026F00045EF14F0E6D80001B751EE5C316EB851E9
:10270000EE58326EB951EE58336EBA51EE58346EFF
:10271000D880C80E3154000E3254000E3354000ECF
:1027200034541200FB0EDBCF00F0FC0EDBCF01F0C7
:10273000FD0EDBCF02F0FE0EDBCF03F01200ACC0CB
:1027400024F0ADC025F0AEC026F0AFC027F01200D7
:10275000026EFF0EDA20036EDE500224E96EDD50B9
:1027600003204EEF14F0D950040FE96EDACFEAFFE0
:10277000D880960EEE54000EEE54000EEE54000E6D
:10278000EE54120024C000F025C001F026C002F073
:1027900027C003F01200A6D8040E005C000E0158FA
:1027A0001200D9CFE6FFE1CFD9FF1200E126A0C089
:1027B000DFFF010EA1C0DBFF020EA2C0DBFF030E94
:1027C000A3C0DBFF120082D8E668E6683CEC27F085
:1027D000036E1200E16EE552E7CFD9FF1200DFCFA2
:1027E000B7F0010EDBCFB8F0020EDBCFB9F0030E6D
:1027F000DBCFBAF01200DACFEAFFEECFE6FFEECF82
:10280000E6FFEECFE6FFEFCFE6FF1200DACFE4FF00
:10281000E2CFDAFFE9CFE4FFEACFE4FF1200A0C085
:10282000B7F0A1C0B8F0A2C0B9F0A3C0BAF01200CE
:1028300004C024F005C025F006C026F007C027F02C
:10284000120000C024F001C025F002C026F003C031
:1028500027F01200296A2A6A200E2B6E410E2C6E78
:10286000D0EF20F0DBCF26F0B6EF1FF0296A800E04
:102870002A6E090E2B6E440E2C6E1200E5CFEAFF75
:10288000E5CFE9FFE5CFDAFF120024C029F025C02B
:102890002AF026C02BF027C02CF01200EA6EEF5071
:1028A000E66E1DEC29F0E552E552DF2A010E12001A
:1028B00024C004F025C005F026C006F027C007F0AC
:1028C0001200D9CFE9FFDACFEAFF1200016E026AE7
:1028D00000C0E6FFE66E02C0E6FF1200C3DF07DFBE
:0E28E00021EF14F0DECF00F0DDCF01F012008A
:0228EE00B3EC49
:1028F00019F0FB0EDBCFF3FFDB06F35000090AE013
:1029000001EC1AF0FA0E6CEC1AF0F3E1011CF1E1A3
:10291000010E01D0000EE2EF19F0B3EC19F03B0EFE
:10292000E12402E3E168E652E16E010EDB6A020E89
:10293000DB6AF90EDBCFF6FFFA0EDBCFF7FFFB0EFB
:10294000DBCFF8FF0800F550DF6EDF5002E106EF45
:1029500019F0250EDF5C02E0F9EF18F0030EDB6AD8
:10296000040EDB6A050EDB6A060EDB6A070EDB6A05
:102970001BEC19F02D0EDF5C0CE02B0EDF5C09E088
:10298000200EDF5C06E0230EDF5C03E0300EDF5C30
:102990001AE1DF50300A14E0130A0FE0030A0AE0DC
:1029A0000B0A05E0060AE4E1030EDB80E1D7030E23
:1029B000DB82DED7030EDB84DBD7030EDB86D8D7C2
:1029C000030EDB88D5D72A0EDF5C1BE117EC19F06C
:1029D00065EC19F010E0030EDB8025682668130E05
:1029E000DBCF2AF0140EDBCF2BF063EC21F0040ECA
:1029F00023C0DBFF03D0130E4EEC19F01BEC19F0D3
:102A00000BD0090EDB6ABCEC19F003E030EC1AF0D5
:102A1000FAD7090E4EEC19F0030EDBB0DB982E0E40
:102A2000DF5C1BE11BEC19F02A0EDF5C0BE117ECFD
:102A300019F065EC19F003E1130EA0EC19F01BEC92
:102A400019F00BD0090EDB6ABCEC19F003E030EC96
:102A50001AF0FAD7090EA0EC19F0680EDF5C07E156
:102A60001BEC19F0680EDF5C1DE1030E18D0740E2C
:102A7000DF5C17E07A0EDF5C14E0480EDF5C06E0F6
:102A8000540EDF5C03E05A0EDF5C02E1020E07D059
:102A90006C0EDF5C03E06A0EDF5C04E1010EF3EC18
:102AA00019F0C9DBDF506E0A01E17FD31E0A01E194
:102AB00092D1200A01E18FD13F0A01E149D11A0ADE
:102AC00001E146D10D0A01E143D1200A01E140D1E3
:102AD0003A0A01E13DD1200A01E13AD1260A01E199
:102AE00035D10D0A01E132D11A0A01E1D9D0200A0B
:102AF0004AE0300A1FE0460A0EE0250A01E083D3CF
:102B0000D950F90FE96EFF0EDA20EA6E010EEE5E83
:102B1000000EEE5AEE5A01EC1AF0250EE66E95DB29
:102B200003E1011C01E169D3FDEC19F001E26BD373
:102B3000DB2A69D3080EDB6A040EDB50010806E2CB
:102B4000040EDB04C5EC19F0DB508BDB080EDB5008
:102B500009E0030EDB50010B05E172DB01E04DD310
:102B6000080EDB6A64DBEFCFDFFF75EC1AF003E1E0
:102B7000011C01E142D3FDEC19F001E3DB2A60DB2B
:102B800001E141D33AD3070EDB5002080FE141ECDB
:102B90001AF0030E08EC1AF00E0EEECFDBFF0F0E4C
:102BA000EECFDBFF100EEECFDBFF20D0F70EDBCF3A
:102BB00003F0F80EDBCF04F0020E035E000E045AA1
:102BC000F70E03C0DBFFF80E04C0DBFF03C0E9FF14
:102BD00004C0EAFFF8EC19F0026A0E0E00C0DBFF39
:102BE0000F0E01C0DBFF100E02C0DBFF0E0EDBCFAD
:102BF000E6FF0F0EDBCFE6FF100EDBCFE6FFC9ECE2
:102C000028F0E552E552E552130E24C0DBFF140E06
:102C100025C0DBFF060EDB5005E0130E3CEC1AF07E
:102C200001E26ADB60EC1AF002E2130E37DB23EC00
:102C30001AF006E0040E3CEC1AF002E2050E2EDB60
:102C4000030EDBB005D0FCDA01E0D7D2080EDB6A58
:102C5000090EDB6A0E0EDBCFF6FF0F0EDBCFF7FFA0
:102C6000100EDBCFF8FF0800F550DF6EDF5014E0E8
:102C700066EC1AF011E275EC1AF003E1011C01E1B7
:102C8000BCD2BBDB01E3DB2A090EDB2AD9500E0FD5
:102C9000E96E000ECBDBE7D7D3DA01E1B4D2ADD2D7
:102CA000C6DA110EEECFDBFF120EEDCFDBFF110EF9
:102CB000DBCFE6FF120EDBCFE6FFBBEC28F0E552E0
:102CC000E552130EF3CFDBFF140EF4CFDBFF060E3D
:102CD000DB5004E0130ED0DB01E20EDB60EC1AF0F7
:102CE00002E2130EDBDAAFDB05E0040EC5DB02E225
:102CF000050ED4DA030EDBB005D0A2DA01E07DD2F6
:102D0000080EDB6A090EDB6A110EDBCFE9FF120E3B
:102D1000DBCFEAFFEFCFDFFFDF5014E0D7DB12E2BB
:102D2000E4DB03E1011C01E168D267DB01E3DB2A9C
:102D3000090EDB2A110EDB2ADBCFE9FF120EE8E3D6
:102D4000DB2AE6D77DDA01E15ED257D2030EDB8EB5
:102D5000070EDB0410E195DB040E5ADB0A0EEECF02
:102D6000DBFF0B0EEECFDBFF0C0EEECFDBFF0D0E0D
:102D7000EECFDBFF6CD0070EDB5003082CE1030E17
:102D8000DBAE0DD0B2DA020E76DAEFCF00F0016AD8
:102D9000026A036A00AE39D00168026835D0F70EC6
:102DA000DBCF01F0F80EDBCF02F0020E015E000E69
:102DB000025AF70E01C0DBFFF80E02C0DBFF01C0B4
:102DC000E9FF02C0EAFFEFCF00F00A0E00C0DBFF10
:102DD0000B0EDB6A38D0070EDB50020809E1030E48
:102DE000DBAE04D059DB02AE10D00ED055DB0DD0D7
:102DF000030EDBAE12D079DA020E3DDAF9DA026A9E
:102E0000036A01AE02D002680368E2DA0C0E02C067
:102E1000DBFF0D0E03C0DBFF1AD0F70EDBCF02F095
:102E2000F80EDBCF03F0020E025E000E035AF70E1F
:102E300002C0DBFFF80E03C0DBFF02C0E9FF03C0E6
:102E4000EAFFD6DAC5DA0C0EDB6A0D0EDB6A060E77
:102E5000DB5005E1010EF36E050EF3CFDBFF150E1F
:102E6000DB6A160EDB6AD950370F006E000EDA20CF
:102E7000016E390E00C0DBFF3A0E01C0DBFF380ED9
:102E8000DB6A080EDB6A0A0EAEDADF50780A12E05F
:102E9000200A10E0280A0CE0200A0AE03F0A06E0B7
:102EA0000D0A02E0200A08E1020E05D0080E03D048
:102EB000080EDF26100E97DA030EDBBE02D0DB927F
:102EC000DB94DB50800B24E08ADAD890030EEB50C1
:102ED000000A08E6000EEE5C000EEE58000EEE58FA
:102EE000000EEE5815E213DA286829682A682B6864
:102EF0004CEC28F00A0E1FC0DBFF0B0E20C0DBFFDE
:102F00000C0E21C0DBFF0D0E22C0DBFF2D0E08D002
:102F1000030EDBA202D02B0E03D0DBA408D0200EC0
:102F2000F36E170EF3CFDBFF150EDB2A02D0170E60
:102F3000DB6A050EDB5003E1B7D901E189D02A0E27
:102F4000006E540E016E000E026E070EDBCF03F012
:102F5000046A056A066A03C028F004C029F005C0A7
:102F60002AF006C02BF0D3D949EC29F000501F24D9
:102F7000F36E01502020F46E02502120F86EF4CF41
:102F8000F7FFF3CFF6FF0800090EF5CFDBFF580E71
:102F9000DF5C0FE1610EF36E090E7BD90AE3200EB0
:102FA000006E090EDBCFE7FF0050E75E090EE7CFAA
:102FB000DBFF070EDBCF00F0016A026A036A0FDA5B
:102FC00000C028F001C029F002C02AF003C02BF095
:102FD000EECF23F0EECF24F0EECF25F0EFCF26F0AA
:102FE00049EC29F026C0EDFF25C0EDFF24C0EDFF20
:102FF00023C0EFFF390EDBCFE9FFDB063A0EDBCF54
:10300000EAFF01E2DB06090EDBCFEFFF150EDB2A3C
:103010004BD995E1030EDBA61DD06F0EDF5C06E1F8
:10302000C1D918E3150EDB285BDA14D0780EDF5C0B
:1030300009E0580EDF5C06E0620EDF5C03E0420E42
:10304000DF5C08E1020EF36E160EF3CFDBFF02D059
:10305000150EDB6A030EDB50100B0EE0040EDBCF07
:1030600000F0050EDB50D880005406E2060EDB505F
:1030700003E1040EDB5034DA95D90AE2050EDBCF0A
:10308000E7FF150EDB50E75E050EE7CFDBFF02D052
:10309000050EDB6A040EDBCF00F0160E45D9D88092
:1030A000005414E2160EDBCFE6FF150EDBCFE6FF71
:1030B000040EDBCFE6FF050EDB50E552E75CE55280
:1030C000D880E754E552D880E7545FD9030EDB502F
:1030D000010B0BE1080EDB5008E0B2D801E08DD007
:1030E000080EDB50BED8080EDB6A170EDB5007E077
:1030F00088D9170EF1D903E1011C01E17ED0160E2B
:10310000DB5016E07ED9300EE66E9FD802E1011C3E
:1031100074E077D9DFCFE6FFCFEC27F0E552E55238
:10312000E552F4CF01F00001F31C02E1011C65E05F
:10313000050EDBCF00F0160EDB50D880005409E2FC
:10314000050EDBCFE7FF160EDB50E75E050EE7CF7F
:10315000DBFF300EE66E050ECBD94FE1390EDB2AD0
:10316000DBCFE9FF3A0E01E3DB2ADBCFEAFF090EF2
:10317000EFCFDBFFDB500EE044D9090EADD902E101
:10318000011C3BE0390EDB2ADBCFE9FF3A0EEDE311
:10319000DB2AEBD755D831E1160EDBCFE6FF080E60
:1031A000C3D8E552E7245DD82ED0070EDB50030AC2
:1031B0001CE0010A14E0030A07E07BD9DBCFEEFF35
:1031C000020EDBCFEDFF1FD0F5D8056A03AE02D0AB
:1031D000046805682CD8BCD805C0EEFF14D0EAD826
:1031E00003BE046824D8B4D80ED063D9DBCFEFFF78
:1031F0000AD07BD905E1011C03E1F368F46810D023
:10320000FCD801E3DB2A79D9A2EF14F0010EDBCF61
:1032100000F0020EDBCF01F000C0F3FF01C0F4FFAD
:103220003B0EE15C02E2E16AE552E16ECBD029D9C6
:10323000020E08EF1AF061D90800F550DF6E120097
:10324000200EE66E080E78EF1AF0CFEC27F0E5526C
:10325000E552E552F3CF00F0F4CF01F00001F31C8A
:103260001200006E016AD950010F4DD90050EE26B0
:103270000150ED221200045E000E055AF70E04C044
:10328000DBFFF80E05C0DBFF04C0E9FF05C0EAFF65
:103290001200DBCFF4FFF350F45C1200DB50E76E5A
:1032A000040EE7CFDBFF12000A0EDBCF00F00B0E9F
:1032B000DBCF01F00C0EDBCF02F00D0EDBCF03F005
:1032C00000500110021003101200130EEECFDBFFAE
:1032D000140EEDCFDBFF130EDBCF00F0140EDBCFAF
:1032E00001F00001800E01141200F70EDBCF04F094
:1032F000F80EDBCF05F01200050EDB50E66ED9505C
:10330000130F01D9E552E750EE6EED6A12000A0E76
:10331000DBCF23F00B0EDBCF24F00C0EDBCF25F040
:103320000D0EDBCF26F01200DBCFE6FF150EDBCF54
:10333000E6FF050EDB50E552E724E552E7241200D4
:10334000DB50CED8010EF36E060EF3CFDBFF12007A
:10335000EE50EFCFEAFFE96E02C0EEFF03C0EEFFD2
:1033600004C0EEFF1200D9CFE6FFDACFE6FFE1CFCF
:10337000D9FFE2CFDAFF1200DFCFE6FFE66AB5EC55
:1033800029F0E552E552F3501200E76E080EE7CF40
:10339000DBFF1200EECF00F0EECF01F0EFCF02F036
:1033A000036A1200050EDBCF00F0150EDB50D8804B
:1033B00000541200010EDBCF02F0020EDBCF03F04F
:1033C000046A1200E552E5CFDAFFE7CFD9FF120019
:1033D0000A0E00C0DBFF0B0E01C0DBFF1200D9504C
:1033E0000A0F83EF1AF0F36E070EF3CFDBFF120024
:1033F000EECF00F0EFCF01F01200010EDB2A020E3B
:103400001200FC0EDBCFE6FFFD0EDBCFE6FF120065
:10341000005E000E015AF70E00C0DBFFF80E01C07F
:10342000DBFF00C0E9FF01C0EAFF1200DA20EA6E0C
:10343000EF2AEECFF6FF000EEF22EECFF7FFEF22DE
:10344000EECFF8FF1200040EDBCFE6FF130EDB50C9
:10345000E552E75C9ADFDB5004DF060EDB5012001A
:10346000090EDB500A0DF350DF24D00FE76E090E72
:10347000E7CFDBFF1BEF19F0DB50F36E050E49EFD2
:1034800019F0F70EDBCF00F0F80EDBCF01F01200E1
:10349000DFCFE6FF25EF19F028DF030EECDECAEFE1
:1034A00019F077EC14F0E552E552E552E5520009C7
:1034B0001200BDDEEE50EFCFEAFFE96E010E120002
:1034C000130EDB50F36E040E49EF19F0040EDB50BF
:1034D000F36E090E49EF19F0DBCFE6FF25EF19F087
:1034E000E76E050EE7CFDBFF12008BDF48EF1AF027
:1034F000DBCFE6FF86DF51EF1AF0D950F90FE96E06
:10350000FF0E16EF1AF0E96E000EDA20EA6E1200D6
:10351000D9CFE6FFE1CFD9FF0A0EE126040EB0C0F5
:10352000DBFF050EB1C0DBFF00010A0EA56F000135
:10353000A66BA76B0001A869030EA96F0001AA6B17
:10354000AB6BE60E006E4B0E016E026A00C0E6FF2A
:1035500001C0E6FF02C0E6FFE668E6683CEC27F043
:10356000036E050EE15E035000010A0EA56F0A0E00
:103570000001A55D01E077D0A6C0B0F0A7C0B1F012
:10358000010EE66E88EC07F0E55223C0ACF024C0D3
:10359000ADF025C0AEF026C0AFF0E66A88EC07F0CB
:1035A000E55223C006F024C007F025C008F026C06D
:1035B00009F006C0E6FF07C0E6FF08C0E6FF09C045
:1035C000E6FF57EC10F0E552E552E552E55223C014
:1035D00002F024C003F025C004F026C005F002C0AC
:1035E00024F003C025F004C026F005C027F090ECBD
:1035F00021F025C000F026C001F000C0E6FF01C0A8
:10360000E6FFACC024F0ADC025F0AEC026F0AFC0E0
:1036100027F090EC21F025C00AF026C00BF00AC07C
:10362000E6FF0BC0E6FFB0C0E6FFB1C0E6FFD30E79
:103630000C6E4B0E0D6E0E6A0CC0E6FF0DC0E6FF61
:103640000EC0E6FFE668E6683CEC27F00F6E0B0E56
:10365000E15E0F50EAEC22F0640EE66E88EC29F091
:10366000E552040084D7B0C0DEFFB1C0DDFFC60E56
:10367000006E4B0E016E026A00C0E6FF01C0E6FF5D
:1036800002C0E6FFE668E6683CEC27F0036E050E34
:10369000E15E035000010B0EA56F0B0E0001A55D4E
:1036A00001E077D0A6C0B0F0A7C0B1F0010EE66E81
:1036B00088EC07F0E55223C0ACF024C0ADF025C083
:1036C000AEF026C0AFF0E66A88EC07F0E55223C002
:1036D00006F024C007F025C008F026C009F006C097
:1036E000E6FF07C0E6FF08C0E6FF09C0E6FF57ECAB
:1036F00010F0E552E552E552E55223C002F024C035
:1037000003F025C004F026C005F002C024F003C079
:1037100025F004C026F005C027F090EC21F025C06C
:1037200000F026C001F000C0E6FF01C0E6FFACC01B
:1037300024F0ADC025F0AEC026F0AFC027F090EC6D
:1037400021F025C00AF026C00BF00AC0E6FF0BC02E
:10375000E6FFB0C0E6FFB1C0E6FFD30E0C6E4B0E25
:103760000D6E0E6A0CC0E6FF0DC0E6FF0EC0E6FF50
:10377000E668E6683CEC27F00F6E0B0EE15E0F503A
:10378000EAEC22F0640EE66E88EC29F0E5520400C3
:1037900084D7020EB0C0DBFF030EB1C0DBFF040E06
:1037A000DBCFB0F0050EDBCFB1F00001AC6BAD6B41
:1037B000800EAE6F3F0EAF6F0001ED6BEE6B82843B
:1037C000006A016A8C0E026E420E036E020EDBCF9F
:1037D0000AF0030EDBCF0BF0DE500A5C086EDD5002
:1037E0000B58096E08C025F009C026F0B6EC1FF092
:1037F00024C004F025C005F026C006F027C007F05D
:1038000004C029F005C02AF006C02BF007C02CF038
:1038100000C024F001C025F002C026F003C027F04C
:103820007DEC20F024C008F125C009F126C00AF182
:1038300027C00BF1006A016A3E0E026E430E036E52
:10384000000EDBCF25F0010EDBCF26F0B6EC1FF02B
:1038500024C008F025C009F026C00AF027C00BF0EC
:1038600008C029F009C02AF00AC02BF00BC02CF0C8
:1038700008C124F009C125F00AC126F00BC127F0C8
:10388000D0EC20F024C004F025C005F026C006F0DE
:1038900027C007F004C029F005C02AF006C02BF0AD
:1038A00007C02CF000C024F001C025F002C026F0B3
:1038B00003C027F0E6EC1FF024C00CF125C00DF189
:1038C00026C00EF127C00FF10CC124F00DC125F068
:1038D0000EC126F00FC127F090EC21F0060E25C096
:1038E000DBFF070E26C0DBFF060EDBCF02F0070E64
:1038F000DBCF03F0100E0302F3CF03F0270E02021A
:10390000F3500326100E0202F3CF02F0F450032608
:10391000296A400E2A6E1C0E2B6E460E2C6E0CC1B0
:1039200024F00DC125F00EC126F00FC127F0D0EC18
:1039300020F090EC21F00250255C006E03502658D8
:10394000016E080E00C0DBFF090E01C0DBFF080E90
:10395000DBCF00F0090EDBCF01F00001800E011477
:1039600010E025682668080EDBCF2AF0090EDBCFB1
:103970002BF063EC21F0080E23C0DBFF090E24C0FE
:10398000DBFF080EDBCFE6FF090EDBCFE6FF060EFE
:10399000DBCFE6FF070EDBCFE6FFB40E006E4B0E6B
:1039A000016E026A00C0E6FF01C0E6FF02C0E6FF4A
:1039B000E668E6683CEC27F0036E090EE15E035012
:1039C00008C124F009C125F00AC126F00BC127F077
:1039D00090EC21F0060E25C0DBFF070E26C0DBFFB2
:1039E000060EDBCF02F0070EDBCF03F0100E030252
:1039F000F3CF03F0270E0202F3500326100E02024B
:103A0000F3CF02F0F4500326296A400E2A6E1C0EF2
:103A10002B6E460E2C6E08C124F009C125F00AC198
:103A200026F00BC127F0D0EC20F090EC21F00250F2
:103A3000255C006E03502658016E080E00C0DBFFA7
:103A4000090E01C0DBFF080EDBCFE6FF090EDBCF5E
:103A5000E6FF060EDBCFE6FF070EDBCFE6FFA20E8A
:103A6000006E4B0E016E026A00C0E6FF01C0E6FF69
:103A700002C0E6FFE668E6683CEC27F0036E090E3C
:103A8000E15E035000010C0EA56F0C0E0001A55D58
:103A900007E1640EE66E88EC29F0E5520400F5D7E4
:103AA0000001080EA56F0A0EE15C02E2E16AE55230
:103AB000E16EE552E7CFD9FF1200D9CFE6FFE1CFA3
:103AC000D9FFE6520001AA6BAB6B040E0001A86F90
:103AD000A96B0001A66BA76B930E006E4B0E016ED7
:103AE000026A00C0E6FF01C0E6FF02C0E6FFE6682A
:103AF000E6683CEC27F0036E050EE15E0350000122
:103B0000070EA56F070E0001A55D01E015D10400A9
:103B1000060E0001A61901E1A75101E1EED0050E44
:103B20000001A61901E1A75101E1C9D0040E00016D
:103B3000A61901E1A75101E19DD0030E0001A619CC
:103B400001E1A75175E0020E0001A61901E1A7519C
:103B50004FE0010E0001A61901E1A7512AE0000182
:103B6000A65101E1A75101E0E6D0870E006E4B0E91
:103B7000016E026A00C0E6FF01C0E6FF02C0E6FF78
:103B8000E668E6683CEC27F0036E050EE15E035044
:103B900000C108F101C109F102C10AF103C10BF131
:103BA00004C10CF105C10DF106C10EF107C10FF101
:103BB000C2D07B0E006E4B0E016E026A00C0E6FFA3
:103BC00001C0E6FF02C0E6FFE668E6683CEC27F0CD
:103BD000036E050EE15E03500101086B096B0A6B71
:103BE0003F0E0B6F01010C6B0D6B0E6B0F6BA3D0B7
:103BF0006F0E006E4B0E016E026A00C0E6FF01C040
:103C0000E6FF02C0E6FFE668E6683CEC27F0036EDC
:103C1000050EE15E03500101086B096BC00E0A6FCF
:103C20003E0E0B6F01010C6B0D6B0E6B0F6B83D097
:103C3000630E006E4B0E016E026A00C0E6FF01C00B
:103C4000E6FF02C0E6FFE668E6683CEC27F0036E9C
:103C5000050EE15E03500101086B096B400E0A6F0F
:103C60003F0E0B6F01010C6B0D6B4F0E0E6FC30EF1
:103C70000F6F61D0570E006E4B0E016E026A00C0CE
:103C8000E6FF01C0E6FF02C0E6FFE668E6683CEC3E
:103C900027F0036E050EE15E03500101110E086F5F
:103CA000C70E096F420E0A6F400E0B6F0101D20E54
:103CB0000C6F0D6B010E0E6FC20E0F6F3CD04B0ED2
:103CC000006E4B0E016E026A00C0E6FF01C0E6FF07
:103CD00002C0E6FFE668E6683CEC27F0036E050EDE
:103CE000E15E03500101086B096B0A6B0B6B01016C
:103CF0000C6B0D6B0E6B0F6B1ED03F0E006E4B0EE0
:103D0000016E026A00C0E6FF01C0E6FF02C0E6FFE6
:103D1000E668E6683CEC27F0036E050EE15E0350B2
:103D20000101086B096B0A6B0B6B01010C6B0D6BCE
:103D30000E6B0F6B00D0E6D60001A651A71102E171
:103D400088EC1AF02F0E006E4B0E016E026A00C056
:103D5000E6FF01C0E6FF02C0E6FFE668E6683CEC6D
:103D600027F0036E050EE15E03500001AA6BAB6BFA
:103D7000010E0001A86FA96B0001A66BA76B0001E3
:103D8000080EA56F080E0001A55D36E10400010EC6
:103D90000001A61901E1A7511AE00001A65101E1B5
:103DA000A75101E028D0250E006E4B0E016E026A6D
:103DB00000C0E6FF01C0E6FF02C0E6FFE668E66875
:103DC0003CEC27F0036E050EE15E035014D01B0E91
:103DD000006E4B0E016E026A00C0E6FF01C0E6FFF6
:103DE00002C0E6FFE668E6683CEC27F0036E050ECD
:103DF000E15E035000D0C6D70001010EA61901E113
:103E0000A75110E108C100F109C101F10AC102F195
:103E10000BC103F10CC104F10DC105F10EC106F196
:103E20000FC107F10C0E006E4B0E016E026A00C04E
:103E3000E6FF01C0E6FF02C0E6FFE668E6683CEC8C
:103E400027F0036E050EE15E03500001AA6BAB6B19
:103E5000010E0001A86FA96B0001A66BA76B000102
:103E6000090EA56F090E0001A55D36E10400010EE3
:103E70000001A61901E1A7511AE00001A65101E1D4
:103E8000A75101E028D0250E006E4B0E016E026A8C
:103E900000C0E6FF01C0E6FF02C0E6FFE668E66894
:103EA0003CEC27F0036E050EE15E035014D01B0EB0
:103EB000006E4B0E016E026A00C0E6FF01C0E6FF15
:103EC00002C0E6FFE668E6683CEC27F0036E050EEC
:103ED000E15E035000D0C6D70001010EA61901E132
:103EE000A7512AE1DF6A040EDF5C11E2180EDF241D
:103EF000E66EDF50EA6A0C0FE96E010EEA22EF501F
:103F0000E66E1DEC29F0E552E552DF2AECD7DF6AB8
:103F1000040EDF5C11E2140EDF24E66EDF50EA6A65
:103F2000080FE96E010EEA22EF50E66E1DEC29F053
:103F3000E552E552DF2AECD704000001080EA56F18
:0A3F4000E552E552E7CFD9FF120069
:063F4A001E9E05D01E9E24
:103F500026AE02D0266C1E8E26C020F01F6A306A64
:103F60002F6A860E216E226A80EF22F01E9E08D0F4
:103F70001E9E26AE05D0256C261EE86A26221E8EC1
:103F800026C020F025C01FF0306A2F6A8E0E216EE9
:103F9000226A80EF22F01E9E0CD01E9E26AE09D013
:103FA000236C241E251E261EE86A24222522262292
:103FB0001E8E26C020F025C01FF024C030F023C084
:103FC0002FF09E0E216E226A80EF22F02C7E1E6A58
:103FD000BCEC22F0D4EC22F01EB664EF22F01EA25C
:103FE0000AD01EAA03D01EBE64EF22F01EA470EFFA
:103FF00022F06DEF22F01EAA05D01EAC70EF22F069
:104000006DEF22F01EA00AD01EA808D01EBE04D05C
:104010001EA402D079EF22F07DEF22F02F6A226AEF
:104020002C50275C2E6E10E324C030F025C01FF00A
:1040300026C020F027C02DF029C024F02AC025F08A
:104040002BC026F01E3A09D029C030F02AC01FF03C
:104050002BC020F02CC02DF02E6C1E9E1EBC1E8E80
:104060002DC021F01EB0ACEF22F01A0E2E60ACEF86
:1040700022F0216A276A1EA408D0246C251E261E61
:10408000271EE86A2522262227221EAC08D0306C83
:104090001F1E201E211EE86A1F2220222122236AC1
:1040A0002E5207E0273426322532243223322E2E98
:1040B000F9D72450302625501F2226502022275081
:1040C000212223C02FF01E9E21AE0BD02F6C301E5C
:1040D0001F1E201E211EE86A30221F2220222122BC
:1040E0001E8E21A006D0D88020321F3230322F32CF
:1040F0002D2A2DC021F080EF22F01E6ABCEC22F0A8
:10410000D4EC22F01EB664EF22F01EA205D01EBA37
:1041100064EF22F06BEF22F01EBA77EF22F01EA0C0
:1041200005D01EB864EF22F077EF22F01EB86BEFD7
:1041300022F0226A7F0E2724216EE86A22222C5068
:10414000215EE86A225A1A0E2D6E276A2F6A306A9B
:104150001F6A206A2950245E2A50255A2B50265A5D
:10416000000E275A09E7295024262A5025222B50D1
:104170002622000E272201D02F8AD89024362536F9
:1041800026362736D8902F3630361F3620362D2E3D
:10419000E1D7265025102410D8A42F8A80EF22F0D2
:1041A0001E6ABCEC22F0D4EC22F01EB664EF22F0C2
:1041B0001EA205D01EB864EF22F06BEF22F01EAAFB
:1041C00005D01EB064EF22F06BEF22F01EB002D0DB
:1041D0001EA802D077EF22F0226A2C502724216EED
:1041E000E86A22227E0E215EE86A225A2F6A306A2D
:1041F0001F6A206A2B502602F4CF20F0F3CF1FF065
:104200002A502602F3503026F4501F22000E20229E
:104210002B502502F3503026F4501F22000E20228E
:1042200029502602F3502F26F4503022000E1F2270
:1042300020222A502502F3502F26F4503022000E5F
:104240001F2220222B502402F3502F26F45030221C
:10425000000E1F22202229502502F4502F26000E86
:1042600030221F2220222A502402F4502F26000E32
:1042700030221F22202280EF22F01D6A2BAE46EF53
:1042800021F02A6C2B1EE86A2B221D1E26AE4EEF53
:1042900021F0256C261EE86A26221D1E9FEC29F0BF
:1042A00026BE5EEF21F01DAE000C256C261EE86ACE
:1042B0002622216C221EE86A2222000C1DBE55EF28
:1042C00021F01E88FF0C26C030F025C02FF02550AD
:1042D0002A02F4CF24F0F3CF23F026502B02F4CFA0
:1042E00026F0F3CF25F02A02F3502426F45025229D
:1042F000E86A26222F502B02F3502426F450252260
:10430000E86A26222BAE89EF21F02F50255E30502F
:10431000265A30AE000C2A50255E2B50265A000C2F
:104320001E6ABCEC22F01EB69AEF21F01EA20ED03F
:104330001EB405D07F0E266EFF0E256E1FD0800E98
:10434000266E256A1BD0266A256A18D01EB0FBD7B8
:104350008F0E2760EDD77E0E2764F5D78E0E275C73
:1043600005E0D89026322532272AF8D71EA406D099
:10437000256C261EE86A262226AEE5D712001E6AA4
:10438000BCEC22F01EB6C9EF21F01EA20FD01EB465
:1043900007D07F0E266EFF0E256E246E236E25D06D
:1043A000800E266E01D0266A000EF6D71EB0FBD70F
:1043B000236A9F0E2760EBD77E0E2764F4D79E0EEC
:1043C000275C07E0D8902632253224322332272A70
:1043D000F6D71EA40AD0236C241E251E261EE86ACA
:1043E00024222522262226AEDED712000FEC22F050
:1043F0001EB6000C1EB0010C000C0FEC22F01EB615
:10440000000C1EB0000C1EB4000C010C0FEC22F0CE
:104410001EB6000C1EB0000C1EA4000C010C1E6A7F
:10442000BCEC22F0D4EC22F01EB612001EAE08D076
:104430001EA004D01EA802D01E8012001E901200E2
:104440002C50275C0BE12B50265C08E12A50255CA0
:1044500005E12950245C02E11E801200D8A002D0A0
:104460001E8E10D027502CC027F02C6E26502BC04B
:1044700026F02B6E25502AC025F02A6E245029C024
:1044800024F0296E2C50275C10E0FF0F09E01E90ED
:104490001EB403D01EAE1E8412001EAE1E94120067
:1044A0002C2AD8902B322A3229322950245E2A50C5
:1044B000255A2B50265A26BEEAD7D89024362536C0
:1044C0002636272EF8D7C8D77F0E276EFF0E266E0A
:1044D000256E246E12007F0E1EBEFF0E276E02D0C8
:1044E0007F0E276E800E266E256A246AF3D71EAED5
:1044F00004D0800E276E266AF7D7276A266AF4D77B
:1045000020501F1030102F10F8E022BEF0D720BE30
:104510000CD021502210EBE0D8902F3630361F36C9
:1045200020362106D8A02206F2D72250D4E1212835
:10453000D2E02FAE11D07F0E2F1402E130A00CD0AC
:10454000302AE86A1F22202207E3D88020321F3257
:104550003032212A2128BFE02150C9E030C024F0A8
:104560001FC025F02034266E2130276E2632279E6C
:104570001EBE278E6AEF22F02636273602E31E84FF
:104580001E7E06E11E80276A266A256A246A1200BA
:10459000272803E0D88026321200D890263202E184
:1045A0001E8212001E8612002B362C3602E31E8C51
:1045B0001E7E06E11E882C6A2B6A2A6A296A12006E
:1045C0002C2803E0D8802B321200D8902B32EAE15D
:0445D0001E8A12002D
:0C45D400D9CFE6FFE1CFD9FF0E0EE126A3
:1045E000080EA0C0DBFF090EA1C0DBFF0A0EA2C0AF
:1045F000DBFF0B0EA3C0DBFFD950080FE96EDACF4B
:10460000EAFF0001EF51EE5C006E0001F051EE5840
:10461000016E0001F151EE58026E0001F251EE58A8
:10462000036EE80E005C030E0158000E0258000EE7
:10463000035801E264D1B0C025F0B1C026F0B8EC57
:104640001FF024C000F025C001F026C002F027C0F2
:1046500003F0ACC029F0ADC02AF0AEC02BF0AFC063
:104660002CF000C024F001C025F002C026F003C0E9
:1046700027F0E6EC1FF024C0DEFF25C0DEFF26C0D9
:10468000DEFF27C0DDFFDD52DD52D9C024F0DAC0E5
:1046900025F0DBC026F0DCC027F0000EDBCF29F0D0
:1046A000010EDBCF2AF0020EDBCF2BF0030EDBCFA7
:1046B0002CF0D0EC20F024C000F025C001F026C082
:1046C00002F027C003F000C029F001C02AF002C0A8
:1046D0002BF003C02CF0E5C024F0E6C025F0E7C0C5
:1046E00026F0E8C027F0E7EC1FF024C0E5F025C075
:1046F000E6F026C0E7F027C0E8F0296A2A6AC80E6B
:104700002B6E420E2C6EE5C024F0E6C025F0E7C00B
:1047100026F0E8C027F0FDEC21F0010A08E10001D5
:10472000E56BE66BC80EE76F420EE86F15D0296A9D
:104730002A6A2B6A2C6AE5C024F0E6C025F0E7C09F
:1047400026F0E8C027F006EC22F0010A05E100019E
:10475000E56BE66BE76BE86BB2C029F0B3C02AF0FB
:10476000B4C02BF0B5C02CF0ACC024F0ADC025F027
:10477000AEC026F0AFC027F0E6EC1FF0040E24C058
:10478000DBFF050E25C0DBFF060E26C0DBFF070E94
:1047900027C0DBFFD5C024F0D6C025F0D7C026F057
:1047A000D8C027F0000EDBCF29F0010EDBCF2AF0B6
:1047B000020EDBCF2BF0030EDBCF2CF0D0EC20F081
:1047C00024C0E1F025C0E2F026C0E3F027C0E4F009
:1047D000296A2A6A800E2B6EBF0E2C6EDDC024F073
:1047E000DEC025F0DFC026F0E0C027F0D0EC20F0DE
:1047F000040EDBCF29F0050EDBCF2AF0060EDBCF4F
:104800002BF0070EDBCF2CF0D0EC20F024C0E9F029
:1048100025C0EAF026C0EBF027C0ECF0E5C029F097
:10482000E6C02AF0E7C02BF0E8C02CF0E1C024F08D
:10483000E2C025F0E3C026F0E4C027F0E7EC1FF06B
:1048400024C000F025C001F026C002F027C003F00C
:10485000E9C029F0EAC02AF0EBC02BF0ECC02CF044
:1048600000C024F001C025F002C026F003C027F0EC
:10487000E7EC1FF090EC21F00C0E25C0DBFF0D0ED5
:1048800026C0DBFF0C0EDBCF00F00D0EDBCF01F0FE
:10489000013404E200506408000E015408E2640E82
:1048A000F36E0C0EF3CFDBFF0D0EDB6A0ED00C0E99
:1048B000DBCF00F00D0EDBCF01F00001800E011404
:1048C00004E00C0EDB6A0D0EDB6AACC0B2F0ADC0CA
:1048D000B3F0AEC0B4F0AFC0B5F0080EDBCFEFF070
:1048E000090EDBCFF0F00A0EDBCFF1F00B0EDBCFC1
:1048F000F2F00C0EDBCFEDF00D0EDBCFEEF004008E
:104900000E0EE15C02E2E16AE552E16EE552E7CFAC
:10491000D9FF1200ACC0B2F0ADC0B3F0AEC0B4F07D
:10492000AFC0B5F0EDC025F0EEC026F0B8EC1FF03A
:1049300024C0E5F025C0E6F026C0E7F027C0E8F087
:10494000296A2A6AC80E2B6E420E2C6EFDEC21F0ED
:10495000010A08E10001E56BE66BC80EE76F420E45
:10496000E86F1200296A2A6A2B6A2C6AE5C024F0D3
:10497000E6C025F0E7C026F0E8C027F006EC22F0FC
:10498000010A05E10001E56BE66BE76BE86B1200DD
:10499000D9CFE6FFE1CFD9FFFB0EDBCFD5F0FC0E80
:1049A000DBCFD6F0FD0EDBCFD7F0FE0EDBCFD8F09D
:1049B000F70EDBCFD9F0F80EDBCFDAF0F90EDBCF54
:1049C000DBF0FA0EDBCFDCF0F30EDBCFDDF0F40E24
:1049D000DBCFDEF0F50EDBCFDFF0F60EDBCFE0F065
:0A49E00099DFE552E7CFD9FF12007E
:0649EA0025690D0A000D15
:1049F0000A0D0A0D0A0D0A000C53494420202452C6
:104A00006576240A656C636F2E6372736E646F6FD4
:104A10002E636F6D000C4552524F523A205744306E
:104A200030303100256C692E2530346C692C000C37
:104A3000646F6E65000A2020202020534B495020CF
:104A4000000A2020202020454E544552000C362FCD
:104A5000363A2043414C4942524154494F4E000A94
:104A60004261636B6C696768743A20253369000C96
:104A7000506167652035206F662036000A496E69EF
:104A8000742054656D703A20253369000C506167BD
:104A9000652034206F662036000A446B3A202533A7
:104AA000692E25303369000C506167652033206F13
:104AB000662036000A496B3A202533692E253033AB
:104AC00069000C506167652032206F662036000A4D
:104AD000506B3A202533692E25303369000C506124
:104AE00067652031206F6620360043757272656EEF
:104AF000743A202533692E25303269000C546172D6
:104B00006765743A2020253369200A000C5341560A
:104B100045204348414E4745533F000A202020206E
:104B200020594553000A20202020204E4F20000C01
:104B30004150504C59204348414E4745533F000A8D
:104B40005254442042414B4B5520000A52544420B9
:104B5000515549434B20000A52544420474F524478
:104B6000414B000A5254442048414B4B4F20000A0D
:104B70005443204A2D5479706520000A5443204B39
:104B80002D5479706520000A435553544F4D202011
:104B90002020000C53656C6563742053454E534FC1
:104BA00052000A536C6F70652020253034692E2521
:104BB000303469000C4F66667365742025303469A3
:104BC0002E25303469000C53746570323A20323629
:104BD0003043000A4125303469204D2530346920A6
:104BE0004E25303369000C53746570313A203139E9
:034BF0003043004F
:0C4BF400D9CFE6FFE1CFD9FFFE0EDB5069
:104C0000010B02E0010E01D0000EE8B08984E8A09B
:104C10008994FE0EDB50020B02E0010E01D0000E63
:104C2000E8B08986E8A08996FE0EDB50040B02E00E
:104C3000010E01D0000EE8B08988E8A08998FE0E28
:104C4000DB50080B02E0010E01D0000EE8B0898AAB
:104C5000E8A0899A04008A88010EE66E01EC2AF029
:104C6000E55204008A98010EE66E01EC2AF0E55246
:104C70000400E552E7CFD9FF12008A988A9A8994F6
:104C800089968998899A300E9FD8030E84D887D840
:104C900086D8020E80D8020E9CD8080E92D8080E34
:104CA00090D8010E8ED8060E8CD80C0E74D8300E0B
:104CB000E4EF26F0D9CFE6FFE1CFD9FF8A9A010EC3
:104CC000E66E88EC29F0E552FE0EDB50E8B08A8AE9
:104CD000E8A08A9A04008A98FD0EDB380F0BE66E76
:104CE00089DFE552FD0EDB500F0BE66E83DFE552E8
:104CF000E552E7CFD9FF1200D9CFE6FFE1CFD9FFC8
:104D0000E652FD0EDB0403E0400EDF6E01D0DF6AE9
:104D1000FE0EDB04DF26800EDF104DD8E552E55293
:104D2000E7CFD9FF1200D9CFE6FFE1CFD9FFFE0EC2
:104D3000DB50080A16E0020A0EE0060A05E00B0A3C
:104D400014E1010EE66E0AD0010E35D8140EE66E9F
:104D500088EC29F011D0020EE66E010EE66ECCDF73
:104D60000AD0100EE66EE66A05D0FE0EDBCFE6FF37
:104D7000010EE66E9FDFE552E552FE0EDBCF00F03E
:104D8000016A00BE016800C0F3FF01C0F4FFE552F4
:104D9000E7CFD9FF12001DD8060EE4EF26F0030E70
:104DA00018D8190EE66EF3EC29F0E5521200E66A07
:104DB00021DFE5521200E66EE66A7CDFE552E5523D
:104DC0001200E9DFD7EF26F0E66E88EC29F0E55215
:0A4DD0001200E66E0FDFE55212003C
:064DDA002A0EF66E080E21
:104DE000F76E000EF86E00010900F550F86F09002B
:104DF000F550F96F03E1F86701D03DD00900F55097
:104E0000F36F0900F550F46F0900F550F56F0900D4
:104E10000900F550E96E0900F550EA6E0900090035
:104E20000900F550F66F0900F550F76F0900090009
:104E3000F6CFFAF0F7CFFBF0F8CFFCF0F3C0F6FFB7
:104E4000F4C0F7FFF5C0F8FF0001F65302E1F75395
:104E500007E00900F550EE6EF607F8E2F707F9D71C
:104E6000FAC0F6FFFBC0F7FFFCC0F8FF0001F8072F
:084E7000000EF95BBFD7120030
:084E7800D9CFE6FFDACFE6FF17
:104E8000E1CFD9FFE2CFDAFFE652E652E652E65230
:104E9000D950F90F006EFF0EDA20016E00C0DEFF60
:104EA000DD6EDECFE6FFDDCFE6FFF90EDBCFE6FFFE
:104EB000FA0EDBCFE6FFFB0EDBCFE6FFFC0EDBCF0F
:104EC000E6FFFD0EDBCFE6FF8DEC14F0006E070E63
:104ED000E15C02E2E16AE552E16E0050020EF3CFBE
:104EE000DBFF030EF4CFDBFF020EDBCF00F0030E7F
:104EF000DBCF01F000C0F3FF01C0F4FF040EE15C62
:104F000002E2E16AE552E16EE552E5CFDAFFE7CF72
:044F1000D9FF1200B3
:0C4F1400D9CFE6FFDACFE6FFE1CFD9FFEE
:104F2000E2CFDAFFAC6AAB6AFD0EDBB0AC88DBA285
:104F300002D0AC8CAB8CDBB4AC8EDBA602D0AB88E1
:104F400001D0AB8ADBB8AC849E98DBBAAB86DBAC15
:104F500002D09D8A01D09D9A9E9ADBAE02D09D8898
:104F600001D09D98FB0EDB50AF6EFB0EFC0EDBCF2D
:104F700001F001C000F0016A0050B06EAC8AAB8E47
:104F8000949C948EAC50100B04E0AC50800B01E16B
:0E4F9000948CE552E5CFDAFFE7CFD9FF12008F
:024F9E00D9CF69
:104FA000E6FFDACFE6FFE1CFD9FFE2CFDAFFFB0E73
:104FB000DBCF00F0FC0EDBCF01F00001800E01140E
:104FC0001AE1FB0EDBCFE9FFFC0EDBCFEAFFEECFF1
:104FD000F3FFEDCFF4FFEE2A000EEF22F3CFE9FF4F
:104FE000F4CFEAFFFD0EDBCFEFFFEF50016AF36E67
:104FF00001C0F4FF10D0FB0EDB50FE0806E1FD0EF1
:10500000DBCFE6FFE5EC29F005D0FD0EDBCFE6FFB8
:1050100093EC26F0E552E552E5CFDAFFE7CFD9FF72
:0250200012007C
:0E502200D9CFE6FFDACFE6FFE1CFD9FFE2CF2C
:10503000DAFFE652E652E652E652F8CF02F0F6CF39
:1050400003F00C0EBA6E050EF66EF76A300EF86EAF
:105050000800F550010B03E0010EDB6802D0010EE1
:10506000DB6A010EDB5002E0949201D09396CA9461
:10507000FD0EDB50CB6ECA8402C0F8FF03C0F6FF02
:10508000040EE15C02E2E16AE552E16EE552E5CF31
:08509000DAFFE7CFD9FF12009F
:0850980023502802F3CF1FF0A2
:1050A000F4CF20F02902F3502026000EF420216EC8
:1050B00023502A02F3502126000EF420226E2350A2
:1050C0002B02F350222624502802F3502026F450BD
:1050D0002122000E222224502902F3502126F450CE
:1050E000222224502A02F350222625502802F3506F
:1050F0002126F450222225502902F3502226265040
:085100002802F35022261200E0
:08510800D9CFE6FFDACFE6FF84
:10511000E1CFD9FFE2CFDAFFC26AC06AFC0EDB4002
:105120007F0B3C0BC26EFC0EDB38F00B300B006EBD
:10513000FB0EDB500F0B0010C16EFD0EDB50040D9B
:10514000F350380B016EFD0EDB380F0B070B006EB2
:10515000FD0EDB50800B00100110C06EFC0EDBAEAC
:1051600003D09E9C9D8CF28CC280E552E5CFDAFF85
:06517000E7CFD9FF120099
:0A517600FE0EE3CFE9FFFF0EE3CFCA
:10518000EAFFF36AF46AEE5203E0F34AF42AFBD72B
:105190001200FF0EE3CFF8FFE552FF0EE3CFF7FF5B
:1051A000E552FF0EE3CFF6FFE552E66AE66AE66AED
:1051B0000900F55209E0FD0EE32A05E1FE0EE32A9F
:1051C00002E1FF0EE32AF4D7FD0EE3CF24F0FE0E3A
:0C51D000E3CF25F0FF0EE3CF26F0120025
:0451DC00D9CFE6FF42
:1051E000DACFE6FFE1CFD9FFE2CFDAFFE652E652AF
:1051F000FC0EDBCF00F0FD0EDBCF01F0060ED890E9
:1052000000360136E804FBE100C0DEFF01C0DDFF2F
:10521000010EDB50BB6EDF50E840E8403F0B300B27
:10522000006ECF0EBA140010BA6EE552E552E55288
:0A523000E5CFDAFFE7CFD9FF120047
:06523A00D9CFE6FFE1CF31
:10524000D9FFFD0EDB50A96EFE0EDB50A86EA69EA8
:10525000A69CA684F29EF29C550EA76EAA0EA76E7F
:10526000A682F28EF28CA6B2FED7A694E552E7CFC4
:10527000D9FF1200D9CFE6FFE1CFD9FFFE0EDB50F8
:10528000A96EA69EA69CA680A850E552E7CFD9FF9E
:0252900012000A
:0E529200226A216A206A1F6A200EE76ED890F9
:1052A00023362436253626361F362036213622363A
:1052B00028501F5C295020582A5021582B50225822
:1052C00009E328501F5E2950205A2A50215A2B509A
:0A52D000225A232AE72EE4D7120029
:0652DA00D9CFE6FFDACF98
:1052E000E6FFE1CFD9FFE2CFDAFFFD0EDB50FB0B8B
:1052F000CA6ECC6A9E92FD0EDBAE02D09D8201D0BA
:105300009D92CA84E552E5CFDAFFE7CFD9FF1200BC
:10531000FF0EE3503E6EEF0E01D0F30EE76EE72E68
:105320008FEF29F00C0E3D6EE76AE72E95EF29F01E
:0E5330003D2E94EF29F03E2E8DEF29F0120055
:02533E00226AE1
:10534000216A100EE76ED890253626362136223691
:105350002A50215C2B50225805E32A50215E2B5005
:0A536000225A252AE72EF0D712008A
:06536A00F36AF46AFF0E75
:10537000E124E96EFF0EE220EA6EED6607D02F0E03
:0E538000EF6404D03A0EEF6001D0F32A120061
:02538E00000E0F
:10539000F36E00EE00F0080E01D81200EA6002D0B1
:0E53A000EE6AFCD7F350E9601200EE6AFCD70B
:0253AE0013EEFC
:1053B00000F023EE00F0F86A1E9CEDEC26F025ECE0
:0A53C0002AF022EC11F0FBD71200D6
:0653CA00FF0EE350ACBA37
:1053D00004D0AF6AAB8EAC8A949CACA2FED7AD6E03
:0653E000F36EF46A1200F6
:0A53E600FF0EE3503E6E1B0E00D0D8
:1053F00001D0200EE76EE72EFED73E2EFAD700D062
:02540000120098
:0E540200FF0EE350E84E1200000000D000D074
:0854100000D0E82EFAD71200CB
:08541800C450036E026AC35088
:0A5420000210F36E03C0F4FF120047
:06542A003031323334354D
:0B54300036373839616263646566003E
:04543C00C250020B4D
:0654400001E0010E120064
:04544600C28212000C
:02544A0012004E
:04544C00000000005C
:10545000000000000000000000000000000000004C
:0A5460000000000000000000000042
:06546A00FF7FE703D803F9
:10547000C203A30378034203FF02B30261020E02D8
:10548000BE0174013301FC00CE00A80088006F004B
:105490005B004B003E0033002B0024001E001A006E
:1054A000160012000E0001000000000000000000C5
:1054B0000000FF03000000000000000000000000EA
:1054C00001000000000000000000000000000000DB
:0F54D0000000000000000000000000000020C1EC
:020000040030CA
:0100000024DB
:010001000EF0
:0100020039C4
:0100030015E7
:01000500807A
:010006008178
:010008000FE8
:01000900C036
:01000A000FE6
:01000B00E014
:01000C000FE4
:01000D0040B2
:0200000400F00A
:0C000000000060400000F03F0000504095
:02000C001400DE
:02000E002C01C3
:020010002003CB
:020012003200BA
:080014000000403F00004FC353
:00000001FF
